{
  "_format": "hh-sol-artifact-1",
  "contractName": "PongEscrow",
  "sourceName": "contracts/PongEscrow.sol",
  "abi": [
    {
      "inputs": [
        {
          "internalType": "address",
          "name": "_backendOracle",
          "type": "address"
        }
      ],
      "stateMutability": "nonpayable",
      "type": "constructor"
    },
    {
      "inputs": [],
      "name": "ECDSAInvalidSignature",
      "type": "error"
    },
    {
      "inputs": [
        {
          "internalType": "uint256",
          "name": "length",
          "type": "uint256"
        }
      ],
      "name": "ECDSAInvalidSignatureLength",
      "type": "error"
    },
    {
      "inputs": [
        {
          "internalType": "bytes32",
          "name": "s",
          "type": "bytes32"
        }
      ],
      "name": "ECDSAInvalidSignatureS",
      "type": "error"
    },
    {
      "inputs": [],
      "name": "EnforcedPause",
      "type": "error"
    },
    {
      "inputs": [],
      "name": "ExpectedPause",
      "type": "error"
    },
    {
      "inputs": [
        {
          "internalType": "address",
          "name": "owner",
          "type": "address"
        }
      ],
      "name": "OwnableInvalidOwner",
      "type": "error"
    },
    {
      "inputs": [
        {
          "internalType": "address",
          "name": "account",
          "type": "address"
        }
      ],
      "name": "OwnableUnauthorizedAccount",
      "type": "error"
    },
    {
      "inputs": [],
      "name": "ReentrancyGuardReentrantCall",
      "type": "error"
    },
    {
      "anonymous": false,
      "inputs": [
        {
          "indexed": true,
          "internalType": "string",
          "name": "roomCode",
          "type": "string"
        },
        {
          "indexed": true,
          "internalType": "address",
          "name": "player",
          "type": "address"
        },
        {
          "indexed": false,
          "internalType": "uint256",
          "name": "amount",
          "type": "uint256"
        },
        {
          "indexed": false,
          "internalType": "uint256",
          "name": "timestamp",
          "type": "uint256"
        }
      ],
      "name": "AbandonedMatchRefunded",
      "type": "event"
    },
    {
      "anonymous": false,
      "inputs": [
        {
          "indexed": true,
          "internalType": "address",
          "name": "oldOracle",
          "type": "address"
        },
        {
          "indexed": true,
          "internalType": "address",
          "name": "newOracle",
          "type": "address"
        },
        {
          "indexed": false,
          "internalType": "uint256",
          "name": "timestamp",
          "type": "uint256"
        }
      ],
      "name": "BackendOracleUpdated",
      "type": "event"
    },
    {
      "anonymous": false,
      "inputs": [
        {
          "indexed": true,
          "internalType": "string",
          "name": "roomCode",
          "type": "string"
        },
        {
          "indexed": true,
          "internalType": "address",
          "name": "player1",
          "type": "address"
        },
        {
          "indexed": true,
          "internalType": "address",
          "name": "player2",
          "type": "address"
        },
        {
          "indexed": false,
          "internalType": "uint256",
          "name": "amountEach",
          "type": "uint256"
        },
        {
          "indexed": false,
          "internalType": "uint256",
          "name": "timestamp",
          "type": "uint256"
        }
      ],
      "name": "ExpiredMatchRefunded",
      "type": "event"
    },
    {
      "anonymous": false,
      "inputs": [
        {
          "indexed": true,
          "internalType": "string",
          "name": "roomCode",
          "type": "string"
        },
        {
          "indexed": true,
          "internalType": "address",
          "name": "player1",
          "type": "address"
        },
        {
          "indexed": false,
          "internalType": "uint256",
          "name": "stakeAmount",
          "type": "uint256"
        },
        {
          "indexed": false,
          "internalType": "uint256",
          "name": "timestamp",
          "type": "uint256"
        }
      ],
      "name": "MatchCreated",
      "type": "event"
    },
    {
      "anonymous": false,
      "inputs": [
        {
          "indexed": true,
          "internalType": "string",
          "name": "roomCode",
          "type": "string"
        },
        {
          "indexed": true,
          "internalType": "address",
          "name": "player",
          "type": "address"
        },
        {
          "indexed": false,
          "internalType": "uint256",
          "name": "amount",
          "type": "uint256"
        },
        {
          "indexed": false,
          "internalType": "uint256",
          "name": "timestamp",
          "type": "uint256"
        }
      ],
      "name": "MatchRefunded",
      "type": "event"
    },
    {
      "anonymous": false,
      "inputs": [
        {
          "indexed": true,
          "internalType": "address",
          "name": "previousOwner",
          "type": "address"
        },
        {
          "indexed": true,
          "internalType": "address",
          "name": "newOwner",
          "type": "address"
        }
      ],
      "name": "OwnershipTransferred",
      "type": "event"
    },
    {
      "anonymous": false,
      "inputs": [
        {
          "indexed": false,
          "internalType": "address",
          "name": "account",
          "type": "address"
        }
      ],
      "name": "Paused",
      "type": "event"
    },
    {
      "anonymous": false,
      "inputs": [
        {
          "indexed": true,
          "internalType": "string",
          "name": "roomCode",
          "type": "string"
        },
        {
          "indexed": true,
          "internalType": "address",
          "name": "player2",
          "type": "address"
        },
        {
          "indexed": false,
          "internalType": "uint256",
          "name": "totalPot",
          "type": "uint256"
        },
        {
          "indexed": false,
          "internalType": "uint256",
          "name": "timestamp",
          "type": "uint256"
        }
      ],
      "name": "PlayerJoined",
      "type": "event"
    },
    {
      "anonymous": false,
      "inputs": [
        {
          "indexed": true,
          "internalType": "string",
          "name": "roomCode",
          "type": "string"
        },
        {
          "indexed": true,
          "internalType": "address",
          "name": "winner",
          "type": "address"
        },
        {
          "indexed": false,
          "internalType": "uint256",
          "name": "amount",
          "type": "uint256"
        },
        {
          "indexed": false,
          "internalType": "uint256",
          "name": "timestamp",
          "type": "uint256"
        }
      ],
      "name": "PrizeClaimed",
      "type": "event"
    },
    {
      "anonymous": false,
      "inputs": [
        {
          "indexed": false,
          "internalType": "address",
          "name": "account",
          "type": "address"
        }
      ],
      "name": "Unpaused",
      "type": "event"
    },
    {
      "stateMutability": "payable",
      "type": "fallback"
    },
    {
      "inputs": [],
      "name": "CLAIM_TIMEOUT",
      "outputs": [
        {
          "internalType": "uint256",
          "name": "",
          "type": "uint256"
        }
      ],
      "stateMutability": "view",
      "type": "function"
    },
    {
      "inputs": [],
      "name": "JOIN_TIMEOUT",
      "outputs": [
        {
          "internalType": "uint256",
          "name": "",
          "type": "uint256"
        }
      ],
      "stateMutability": "view",
      "type": "function"
    },
    {
      "inputs": [],
      "name": "backendOracle",
      "outputs": [
        {
          "internalType": "address",
          "name": "",
          "type": "address"
        }
      ],
      "stateMutability": "view",
      "type": "function"
    },
    {
      "inputs": [
        {
          "internalType": "string",
          "name": "roomCode",
          "type": "string"
        }
      ],
      "name": "claimExpiredMatchRefund",
      "outputs": [],
      "stateMutability": "nonpayable",
      "type": "function"
    },
    {
      "inputs": [
        {
          "internalType": "string",
          "name": "roomCode",
          "type": "string"
        },
        {
          "internalType": "bytes",
          "name": "signature",
          "type": "bytes"
        }
      ],
      "name": "claimPrize",
      "outputs": [],
      "stateMutability": "nonpayable",
      "type": "function"
    },
    {
      "inputs": [
        {
          "internalType": "string",
          "name": "roomCode",
          "type": "string"
        }
      ],
      "name": "claimRefund",
      "outputs": [],
      "stateMutability": "nonpayable",
      "type": "function"
    },
    {
      "inputs": [
        {
          "internalType": "string",
          "name": "roomCode",
          "type": "string"
        },
        {
          "internalType": "bytes",
          "name": "signature",
          "type": "bytes"
        }
      ],
      "name": "claimRefundForAbandoned",
      "outputs": [],
      "stateMutability": "nonpayable",
      "type": "function"
    },
    {
      "inputs": [
        {
          "internalType": "string",
          "name": "roomCode",
          "type": "string"
        }
      ],
      "name": "getMatch",
      "outputs": [
        {
          "components": [
            {
              "internalType": "address",
              "name": "player1",
              "type": "address"
            },
            {
              "internalType": "address",
              "name": "player2",
              "type": "address"
            },
            {
              "internalType": "uint256",
              "name": "stakeAmount",
              "type": "uint256"
            },
            {
              "internalType": "address",
              "name": "winner",
              "type": "address"
            },
            {
              "internalType": "enum PongEscrow.MatchStatus",
              "name": "status",
              "type": "uint8"
            },
            {
              "internalType": "uint256",
              "name": "createdAt",
              "type": "uint256"
            },
            {
              "internalType": "uint256",
              "name": "completedAt",
              "type": "uint256"
            }
          ],
          "internalType": "struct PongEscrow.Match",
          "name": "",
          "type": "tuple"
        }
      ],
      "stateMutability": "view",
      "type": "function"
    },
    {
      "inputs": [
        {
          "internalType": "string",
          "name": "roomCode",
          "type": "string"
        }
      ],
      "name": "getMatchStatus",
      "outputs": [
        {
          "internalType": "enum PongEscrow.MatchStatus",
          "name": "",
          "type": "uint8"
        }
      ],
      "stateMutability": "view",
      "type": "function"
    },
    {
      "inputs": [
        {
          "internalType": "string",
          "name": "roomCode",
          "type": "string"
        }
      ],
      "name": "isRoomCodeAvailable",
      "outputs": [
        {
          "internalType": "bool",
          "name": "",
          "type": "bool"
        }
      ],
      "stateMutability": "view",
      "type": "function"
    },
    {
      "inputs": [
        {
          "internalType": "string",
          "name": "",
          "type": "string"
        }
      ],
      "name": "matches",
      "outputs": [
        {
          "internalType": "address",
          "name": "player1",
          "type": "address"
        },
        {
          "internalType": "address",
          "name": "player2",
          "type": "address"
        },
        {
          "internalType": "uint256",
          "name": "stakeAmount",
          "type": "uint256"
        },
        {
          "internalType": "address",
          "name": "winner",
          "type": "address"
        },
        {
          "internalType": "enum PongEscrow.MatchStatus",
          "name": "status",
          "type": "uint8"
        },
        {
          "internalType": "uint256",
          "name": "createdAt",
          "type": "uint256"
        },
        {
          "internalType": "uint256",
          "name": "completedAt",
          "type": "uint256"
        }
      ],
      "stateMutability": "view",
      "type": "function"
    },
    {
      "inputs": [],
      "name": "owner",
      "outputs": [
        {
          "internalType": "address",
          "name": "",
          "type": "address"
        }
      ],
      "stateMutability": "view",
      "type": "function"
    },
    {
      "inputs": [],
      "name": "pause",
      "outputs": [],
      "stateMutability": "nonpayable",
      "type": "function"
    },
    {
      "inputs": [],
      "name": "paused",
      "outputs": [
        {
          "internalType": "bool",
          "name": "",
          "type": "bool"
        }
      ],
      "stateMutability": "view",
      "type": "function"
    },
    {
      "inputs": [],
      "name": "renounceOwnership",
      "outputs": [],
      "stateMutability": "nonpayable",
      "type": "function"
    },
    {
      "inputs": [
        {
          "internalType": "string",
          "name": "roomCode",
          "type": "string"
        }
      ],
      "name": "stakeAsPlayer1",
      "outputs": [],
      "stateMutability": "payable",
      "type": "function"
    },
    {
      "inputs": [
        {
          "internalType": "string",
          "name": "roomCode",
          "type": "string"
        }
      ],
      "name": "stakeAsPlayer2",
      "outputs": [],
      "stateMutability": "payable",
      "type": "function"
    },
    {
      "inputs": [
        {
          "internalType": "address",
          "name": "newOwner",
          "type": "address"
        }
      ],
      "name": "transferOwnership",
      "outputs": [],
      "stateMutability": "nonpayable",
      "type": "function"
    },
    {
      "inputs": [],
      "name": "unpause",
      "outputs": [],
      "stateMutability": "nonpayable",
      "type": "function"
    },
    {
      "inputs": [
        {
          "internalType": "address",
          "name": "newOracle",
          "type": "address"
        }
      ],
      "name": "updateBackendOracle",
      "outputs": [],
      "stateMutability": "nonpayable",
      "type": "function"
    },
    {
      "stateMutability": "payable",
      "type": "receive"
    }
  ],
  "bytecode": "0x60806040523480156200001157600080fd5b50604051620020ff380380620020ff833981016040819052620000349162000145565b600160005533806200006157604051631e4fbdf760e01b8152600060048201526024015b60405180910390fd5b6200006c81620000eb565b506001600160a01b038116620000c55760405162461bcd60e51b815260206004820152601660248201527f496e76616c6964206f7261636c65206164647265737300000000000000000000604482015260640162000058565b600280546001600160a01b0319166001600160a01b039290921691909117905562000177565b600180546001600160a01b03838116610100818102610100600160a81b031985161790945560405193909204169182907f8be0079c531659141344cd1fd0a4f28419497f9722a3daafe3b4186f6b6457e090600090a35050565b6000602082840312156200015857600080fd5b81516001600160a01b03811681146200017057600080fd5b9392505050565b611f7880620001876000396000f3fe6080604052600436106101235760003560e01c80636e6799f1116100a057806392352d6c1161006457806392352d6c14610422578063c30d4d3d14610435578063ef8c8ec614610455578063f2fde38b14610475578063f5f5dd411461049557610175565b80636e6799f11461037d578063715018a6146103b55780638456cb59146103ca5780638a57efda146103df5780638da5cb5b146103ff57610175565b80634e8b87fe116100e75780634e8b87fe146102d557806353411a17146102f557806357a80970146103155780635c975abb14610335578063640d03391461035957610175565b80631c2afdc2146101bd5780631ff274e7146101f357806332ac752b146102085780633f4ba83a1461029357806342ffbab9146102a857610175565b366101755760405162461bcd60e51b815260206004820152601c60248201527f446972656374207472616e7366657273206e6f7420616c6c6f7765640000000060448201526064015b60405180910390fd5b60405162461bcd60e51b815260206004820152601c60248201527f446972656374207472616e7366657273206e6f7420616c6c6f77656400000000604482015260640161016c565b3480156101c957600080fd5b506101dd6101d8366004611bfc565b6104ac565b6040516101ea9190611c76565b60405180910390f35b610206610201366004611bfc565b6104e7565b005b34801561021457600080fd5b50610280610223366004611c9a565b8051602081830181018051600380835293830192909401919091209290528154600183015460028401549284015460048501546005909501546001600160a01b03938416959284169493821692600160a01b90920460ff16919087565b6040516101ea9796959493929190611d4b565b34801561029f57600080fd5b506102066106cc565b3480156102b457600080fd5b506102c86102c3366004611bfc565b6106de565b6040516101ea9190611d94565b3480156102e157600080fd5b506102066102f0366004611bfc565b6107ce565b34801561030157600080fd5b50610206610310366004611df8565b610a24565b34801561032157600080fd5b50610206610330366004611e28565b610ade565b34801561034157600080fd5b5060015460ff165b60405190151581526020016101ea565b34801561036557600080fd5b5061036f61025881565b6040519081526020016101ea565b34801561038957600080fd5b5060025461039d906001600160a01b031681565b6040516001600160a01b0390911681526020016101ea565b3480156103c157600080fd5b50610206610e50565b3480156103d657600080fd5b50610206610e62565b3480156103eb57600080fd5b506102066103fa366004611e28565b610e72565b34801561040b57600080fd5b5060015461010090046001600160a01b031661039d565b610206610430366004611bfc565b61117a565b34801561044157600080fd5b50610206610450366004611bfc565b6113fd565b34801561046157600080fd5b50610349610470366004611bfc565b61179f565b34801561048157600080fd5b50610206610490366004611df8565b6117eb565b3480156104a157600080fd5b5061036f62278d0081565b6000600383836040516104c0929190611e94565b9081526040519081900360200190206003015460ff600160a01b9091041690505b92915050565b6104ef611829565b6104f761184d565b60006003838360405161050b929190611e94565b908152604051908190036020019020905060016003820154600160a01b900460ff16600481111561053e5761053e611c3e565b146105815760405162461bcd60e51b81526020600482015260136024820152724d61746368206e6f7420617661696c61626c6560681b604482015260640161016c565b80546001600160a01b031633036105d25760405162461bcd60e51b8152602060048201526015602482015274086c2dcdcdee840d4ded2dc40deeedc40dac2e8c6d605b1b604482015260640161016c565b806002015434146106255760405162461bcd60e51b815260206004820152601960248201527f5374616b65206d757374206d6174636820706c61796572203100000000000000604482015260640161016c565b6001810180546001600160a01b0319163317905560038101805460ff60a01b1916600160a11b1790556002808201546000916106619190611eba565b9050336001600160a01b0316848460405161067d929190611e94565b60408051918290038220848352426020840152917f27ad4cf947dfffd61e49a3e38b4e127d451a9357a11dde39ff8c21646fefcccb910160405180910390a350506106c86001600055565b5050565b6106d4611877565b6106dc6118aa565b565b61071e6040805160e08101825260008082526020820181905291810182905260608101829052906080820190815260200160008152602001600081525090565b60038383604051610730929190611e94565b908152604080516020928190038301812060e08201835280546001600160a01b039081168352600182015481169483019490945260028101549282019290925260038201549283166060820152916080830190600160a01b900460ff16600481111561079e5761079e611c3e565b60048111156107af576107af611c3e565b8152600482015460208201526005909101546040909101529392505050565b6107d661184d565b6000600383836040516107ea929190611e94565b908152604051908190036020019020905060016003820154600160a01b900460ff16600481111561081d5761081d611c3e565b1461086a5760405162461bcd60e51b815260206004820152601860248201527f43616e6e6f7420726566756e642074686973206d617463680000000000000000604482015260640161016c565b80546001600160a01b031633146108c35760405162461bcd60e51b815260206004820152601860248201527f4f6e6c7920706c6179657220312063616e20726566756e640000000000000000604482015260640161016c565b61025881600401546108d59190611ed1565b4210156109245760405162461bcd60e51b815260206004820152601860248201527f4a6f696e2074696d656f7574206e6f7420726561636865640000000000000000604482015260640161016c565b60038101805460ff60a01b1916600160a21b1790556002810154604051600090339083908381818185875af1925050503d8060008114610980576040519150601f19603f3d011682016040523d82523d6000602084013e610985565b606091505b50509050806109c65760405162461bcd60e51b815260206004820152600d60248201526c1499599d5b990819985a5b1959609a1b604482015260640161016c565b60405133906109d89087908790611e94565b60408051918290038220858352426020840152917ff77c8b687dad602082491a7be0260ea93157ad5116c702758b48adaf2ea609fe910160405180910390a35050506106c86001600055565b610a2c611877565b6001600160a01b038116610a7b5760405162461bcd60e51b8152602060048201526016602482015275496e76616c6964206f7261636c65206164647265737360501b604482015260640161016c565b600280546001600160a01b038381166001600160a01b0319831681179093556040519116919082907f517382c443fe7cf892b4fc29623700986261c9e9916304c0684c96f9507467f390610ad29042815260200190565b60405180910390a35050565b610ae661184d565b600060038585604051610afa929190611e94565b908152604051908190036020019020905060016003820154600160a01b900460ff166004811115610b2d57610b2d611c3e565b14610b845760405162461bcd60e51b815260206004820152602160248201527f4d61746368206e6f7420696e20706c6179657231207374616b656420737461746044820152606560f81b606482015260840161016c565b80546001600160a01b03163314610bdd5760405162461bcd60e51b815260206004820152601e60248201527f4f6e6c7920706c6179657220312063616e20636c61696d20726566756e640000604482015260640161016c565b60018101546001600160a01b031615610c385760405162461bcd60e51b815260206004820152601760248201527f506c61796572203220616c7265616479206a6f696e6564000000000000000000604482015260640161016c565b6000858533604051602001610c4f93929190611ee4565b6040516020818303038152906040528051906020012090506000610ca0827f19457468657265756d205369676e6564204d6573736167653a0a3332000000006000908152601c91909152603c902090565b90506000610ce686868080601f01602080910402602001604051908101604052809392919081815260200183838082843760009201919091525086939250506118fc9050565b6002549091506001600160a01b03808316911614610d465760405162461bcd60e51b815260206004820152601960248201527f496e76616c6964206261636b656e64207369676e617475726500000000000000604482015260640161016c565b60038401805460ff60a01b1916600160a21b1790556002840154604051600090339083908381818185875af1925050503d8060008114610da2576040519150601f19603f3d011682016040523d82523d6000602084013e610da7565b606091505b5050905080610de85760405162461bcd60e51b815260206004820152600d60248201526c1499599d5b990819985a5b1959609a1b604482015260640161016c565b6040513390610dfa908c908c90611e94565b60408051918290038220858352426020840152917f59d0911df889aeeedd406524b52a5bd08b25330cfbcf26d08ea56736131de47d91015b60405180910390a3505050505050610e4a6001600055565b50505050565b610e58611877565b6106dc6000611926565b610e6a611877565b6106dc611980565b610e7a61184d565b600060038585604051610e8e929190611e94565b908152604051908190036020019020905060026003820154600160a01b900460ff166004811115610ec157610ec1611c3e565b14610f0e5760405162461bcd60e51b815260206004820152601c60248201527f4d61746368206e6f7420726561647920666f7220636c61696d696e6700000000604482015260640161016c565b60038101546001600160a01b031615610f615760405162461bcd60e51b8152602060048201526015602482015274141c9a5e9948185b1c9958591e4818db185a5b5959605a1b604482015260640161016c565b6000858533604051602001610f7893929190611f1c565b6040516020818303038152906040528051906020012090506000610fc9827f19457468657265756d205369676e6564204d6573736167653a0a3332000000006000908152601c91909152603c902090565b9050600061100f86868080601f01602080910402602001604051908101604052809392919081815260200183838082843760009201919091525086939250506118fc9050565b6002549091506001600160a01b038083169116146110635760405162461bcd60e51b8152602060048201526011602482015270496e76616c6964207369676e617475726560781b604482015260640161016c565b600384018054600360a01b6001600160a81b031990911660ff60a01b1933161717905542600585015560028085015460009161109f9190611eba565b604051909150600090339083908381818185875af1925050503d80600081146110e4576040519150601f19603f3d011682016040523d82523d6000602084013e6110e9565b606091505b505090508061112c5760405162461bcd60e51b815260206004820152600f60248201526e151c985b9cd9995c8819985a5b1959608a1b604482015260640161016c565b604051339061113e908c908c90611e94565b60408051918290038220858352426020840152917fe6c476ec95889f9c0d9b54579988dbd95abc6f10167aae9902b684c24102bf1e9101610e32565b611182611829565b61118a61184d565b600034116111da5760405162461bcd60e51b815260206004820152601c60248201527f5374616b65206d7573742062652067726561746572207468616e203000000000604482015260640161016c565b6006811461122a5760405162461bcd60e51b815260206004820152601e60248201527f526f6f6d20636f6465206d757374206265203620636861726163746572730000604482015260640161016c565b60006003838360405161123e929190611e94565b9081526040519081900360200190206003015460ff600160a01b90910416600481111561126d5761126d611c3e565b146112b15760405162461bcd60e51b81526020600482015260146024820152734d6174636820616c72656164792065786973747360601b604482015260640161016c565b6040805160e081018252338152600060208201819052348284015260608201819052600160808301524260a083015260c082015290516003906112f79085908590611e94565b9081526040805160209281900383019020835181546001600160a01b03199081166001600160a01b039283161783559385015160018301805486169183169190911790559184015160028201556060840151600382018054948516919093169081178355608085015191939192916001600160a81b03191617600160a01b83600481111561138757611387611c3e565b021790555060a0820151600482015560c09091015160059091015560405133906113b49084908490611e94565b60408051918290038220348352426020840152917fdc44364efb3f23b866867f65e3a356b774343554e6e7a5056ebfc452a9c52d44910160405180910390a36106c86001600055565b61140561184d565b600060038383604051611419929190611e94565b908152604051908190036020019020905060026003820154600160a01b900460ff16600481111561144c5761144c611c3e565b146114995760405162461bcd60e51b815260206004820152601d60248201527f4d61746368206e6f7420656c696769626c6520666f7220726566756e64000000604482015260640161016c565b80546001600160a01b03163314806114bd575060018101546001600160a01b031633145b6115095760405162461bcd60e51b815260206004820152601a60248201527f4e6f74206120706c6179657220696e2074686973206d61746368000000000000604482015260640161016c565b60058101541561155b5760405162461bcd60e51b815260206004820152601760248201527f4d6174636820616c726561647920636f6d706c65746564000000000000000000604482015260640161016c565b62278d008160040154610e106115719190611ed1565b61157b9190611ed1565b4210156115ca5760405162461bcd60e51b815260206004820152601960248201527f436c61696d2074696d656f7574206e6f74207265616368656400000000000000604482015260640161016c565b60038101805460ff60a01b1916600160a21b179055600281015481546040516000916001600160a01b03169083908381818185875af1925050503d8060008114611630576040519150601f19603f3d011682016040523d82523d6000602084013e611635565b606091505b50509050806116865760405162461bcd60e51b815260206004820152601960248201527f526566756e6420746f20706c617965722031206661696c656400000000000000604482015260640161016c565b60018301546040516000916001600160a01b03169084908381818185875af1925050503d80600081146116d5576040519150601f19603f3d011682016040523d82523d6000602084013e6116da565b606091505b505090508061172b5760405162461bcd60e51b815260206004820152601960248201527f526566756e6420746f20706c617965722032206661696c656400000000000000604482015260640161016c565b600184015484546040516001600160a01b0392831692909116906117529089908990611e94565b60408051918290038220878352426020840152917fb9a09a7ed52b9a8d9fba7fb13b302af1924da8312478b595f5fc8e7c2e00bc94910160405180910390a4505050506106c86001600055565b600080600384846040516117b4929190611e94565b9081526040519081900360200190206003015460ff600160a01b9091041660048111156117e3576117e3611c3e565b149392505050565b6117f3611877565b6001600160a01b03811661181d57604051631e4fbdf760e01b81526000600482015260240161016c565b61182681611926565b50565b60015460ff16156106dc5760405163d93c066560e01b815260040160405180910390fd5b60026000540361187057604051633ee5aeb560e01b815260040160405180910390fd5b6002600055565b6001546001600160a01b036101009091041633146106dc5760405163118cdaa760e01b815233600482015260240161016c565b6118b26119bb565b6001805460ff191690557f5db9ee0a495bf2e6ff9c91a7834c1ba4fdd244a5e8aa4e537bd38aeae4b073aa335b6040516001600160a01b03909116815260200160405180910390a1565b60008060008061190c86866119de565b92509250925061191c8282611a2b565b5090949350505050565b600180546001600160a01b03838116610100818102610100600160a81b031985161790945560405193909204169182907f8be0079c531659141344cd1fd0a4f28419497f9722a3daafe3b4186f6b6457e090600090a35050565b611988611829565b6001805460ff1916811790557f62e78cea01bee320cd4e420270b5ea74000d11b0c9f74754ebdbfc544b05a258336118df565b60015460ff166106dc57604051638dfc202b60e01b815260040160405180910390fd5b60008060008351604103611a185760208401516040850151606086015160001a611a0a88828585611ae4565b955095509550505050611a24565b50508151600091506002905b9250925092565b6000826003811115611a3f57611a3f611c3e565b03611a48575050565b6001826003811115611a5c57611a5c611c3e565b03611a7a5760405163f645eedf60e01b815260040160405180910390fd5b6002826003811115611a8e57611a8e611c3e565b03611aaf5760405163fce698f760e01b81526004810182905260240161016c565b6003826003811115611ac357611ac3611c3e565b036106c8576040516335e2f38360e21b81526004810182905260240161016c565b600080807f7fffffffffffffffffffffffffffffff5d576e7357a4501ddfe92f46681b20a0841115611b1f5750600091506003905082611ba9565b604080516000808252602082018084528a905260ff891692820192909252606081018790526080810186905260019060a0016020604051602081039080840390855afa158015611b73573d6000803e3d6000fd5b5050604051601f1901519150506001600160a01b038116611b9f57506000925060019150829050611ba9565b9250600091508190505b9450945094915050565b60008083601f840112611bc557600080fd5b50813567ffffffffffffffff811115611bdd57600080fd5b602083019150836020828501011115611bf557600080fd5b9250929050565b60008060208385031215611c0f57600080fd5b823567ffffffffffffffff811115611c2657600080fd5b611c3285828601611bb3565b90969095509350505050565b634e487b7160e01b600052602160045260246000fd5b60058110611c7257634e487b7160e01b600052602160045260246000fd5b9052565b602081016104e18284611c54565b634e487b7160e01b600052604160045260246000fd5b600060208284031215611cac57600080fd5b813567ffffffffffffffff80821115611cc457600080fd5b818401915084601f830112611cd857600080fd5b813581811115611cea57611cea611c84565b604051601f8201601f19908116603f01168101908382118183101715611d1257611d12611c84565b81604052828152876020848701011115611d2b57600080fd5b826020860160208301376000928101602001929092525095945050505050565b6001600160a01b0388811682528781166020830152604082018790528516606082015260e08101611d7f6080830186611c54565b60a082019390935260c0015295945050505050565b81516001600160a01b039081168252602080840151821690830152604080840151908301526060808401519091169082015260808083015160e0830191611ddd90840182611c54565b5060a083015160a083015260c083015160c083015292915050565b600060208284031215611e0a57600080fd5b81356001600160a01b0381168114611e2157600080fd5b9392505050565b60008060008060408587031215611e3e57600080fd5b843567ffffffffffffffff80821115611e5657600080fd5b611e6288838901611bb3565b90965094506020870135915080821115611e7b57600080fd5b50611e8887828801611bb3565b95989497509550505050565b8183823760009101908152919050565b634e487b7160e01b600052601160045260246000fd5b80820281158282048414176104e1576104e1611ea4565b808201808211156104e1576104e1611ea4565b8284823760609190911b6bffffffffffffffffffffffff1916910190815268105090539113d3915160ba1b6014820152601d01919050565b8284823760609190911b6bffffffffffffffffffffffff1916910190815260140191905056fea2646970667358221220f2ec6652183ae0c8849cc4dd3a5c745955827bf99273fc6c369f21babfe96d1b64736f6c63430008140033",
  "linkReferences": {},
  "deployedLinkReferences": {}
}